:100000006F00A04B0000000032010000340100002E
:1000100000000000000000000000000000000000E0
:1000200000000000000000000000000000000000D0
:10003000BA01000000000000B80400000000000049
:10004000B8040000B8040000B8040000B8040000C0
:10005000B8040000B8040000B8040000B8040000B0
:10006000B8040000B8040000B8040000B8040000A0
:10007000B8040000B8040000B8040000B804000090
:10008000B8040000B8040000B8040000B804000080
:10009000B8040000B8040000B8040000000000002C
:1000A000511126C022C206C4828282441244A24058
:1000B00031018280634E050263C305042E86AA8542
:1000C0007D5515C285466378B6006356C0000606A6
:1000D0008606E36CB6FE014563E4C500918D558D3F
:1000E00085820582F5FA82808682C93F2E858282CA
:1000F0003305A04063D70500B305B040C1B7B305D1
:10010000B0408682653F3305A0408282868263C705
:100110000500634905005D372E858282B305B04036
:10012000E35B05FE3305A040513F3305B0408282BA
:10013000000001A0B707EFBE37E700E0938707088C
:100140003CC701A0EFF2DFF51165111185451305DC
:10015000050202C002C202C402C602C802CA02CC20
:10016000892B930700027C80371401408D473EC2E3
:100170008A85E147130504403EC4ED2E9307000431
:100180007C808A859147130504403EC4E526F167CB
:1001900037440140938707203EC66C00B7070C0028
:1001A000130504803ECA02C8231C0100BD2B8545EF
:1001B00013050480352D7101CDBDB707002093874D
:1001C00087039843050798C3B7F700E023A2070009
:1001D00073002030EFF2DFECB707002003A5070122
:1001E0009305803EE13DB7F700E088CB23A40700EC
:1001F0003D4798C3B7E700E0056723A0E71075B552
:10020000EFF21FEA056501118545410502C002C2F2
:1002100002C402C602C802CA02CC231E0100512930
:10022000930700067C80E1473EC48A858D473715D9
:1002300001403EC28126414489478A8537150140E5
:100240007C8022C4052EB7C704013EC66C00B707E8
:100250000002373501403ECA22CC02C895298545A7
:10026000373501407929056189B5EFF27FE3AA842A
:100270000146894537150140A52E6144894537352A
:100280000140792965DDB3D5840093F5F50F373545
:10029000014069216114E157E312F4FE930500085F
:1002A00037350140B5298547E30AF5FE05468945FE
:1002B00037150140352ED5BBEFF29FDE0545352EB3
:1002C000412A992B353F3937716513050520BD2B20
:1002D000B707002083A5070137150000130545EA7D
:1002E000EF00303A5924AA8537150000130545EB75
:1002F000EF003039813D81440544B706002039467E
:10030000138786031C43858FE37CF6FE2285044316
:100310000604A13FB70600207DF00544CDB7EFF2FB
:100320003FD8371402401C403707FFF8611193E7AC
:1003300017001CC05C404145F98F5CC01C4037076A
:10034000F7FE7D17F98F1CC01C403707FCFF7D1797
:10035000F98F1CC05C4041777D17F98F5CC0B707EF
:100360009F001CC445241C4C3706020093E707027B
:100370001CCCB717014003A70740938607401377AB
:10038000F7F023A0E74003A707401367070823A05F
:10039000E74089479CCA02C002C21C4C3707014093
:1003A000A16693E717001CCC5C43D58F5CC31C404F
:1003B0004167B7160240D98F1CC009679C42F18F74
:1003C0003EC2824785073EC0924781E78247E39756
:1003D000E7FEB71702409C431397E70063580706F0
:1003E00085473EC2124785476310F706B72702408C
:1003F0009843C176FD16719B98C398431367170005
:1004000098C3B7170240D843D8C3D843758FD8C311
:10041000D843C166558FD8C39843B7060001558F9E
:1004200098C3984393166700E3DD06FED843B716DA
:100430000240719BD8C3D84313672700D8C3214714
:10044000DC42B18BE39EE7FE210185B102C259BFB8
:10045000EFF21FC5371702405C4337040020914676
:10046000B18B130404016385D700A1466380D704D0
:10047000B7376E01938707601CC0B7160240DC4295
:100480000840918313F7F700B70700209387070010
:10049000BA978C23DC4293F5F50F93F7070833578F
:1004A000B50099E321392A8718C001B15C43B777B9
:1004B000DC02938707C0C9B701A097010020938190
:1004C000E137138181FC1305000A9705002093850D
:1004D00065B3170600201306E6B263FAC50083224F
:1004E000050023A0550011059105E3EAC5FE171587
:1004F00000001305E59D970500209385A5B017061C
:1005000000201306A6B363FAC5008322050023A0CA
:10051000550011059105E3EAC5FE170500201305F6
:10052000E5B19385C1806377B500232005001105EF
:10053000E36DB5FEB722000093820288739002300B
:100540008D4273904280970200009382A2AB93E2A7
:10055000320073905230EFF09FDC970200009382DC
:10056000E2D57390123473002030B7F7FF1F03A554
:10057000477C8280944593F7060193F2F60081C789
:10058000DC41B3E2F20083D3050093F7F30FA5C378
:1005900003230500611122C226C081471304800293
:1005A0009304800405473316F70033F7C300631242
:1005B000E602939527003D473317B7001347F7FF2F
:1005C00033736700B395B20033E36500639D860023
:1005D00050C985072147E397E7FC124423206500B3
:1005E000824421018280E39696FE10C9DDB78280A5
:1005F00019C20CC982804CC98280B707002023AE83
:10060000A7028280371702401C430E0593F777F04C
:100610005D8D08C38280EFF2BFA8371702405C43AC
:1006200091462A84B18B6385D700A146638DD70696
:10063000B7376E01938707601CC0B7160240DC42D3
:10064000918313F7F700B707002093878702BA97C3
:100650008C23DC42184093F5F50F93F707083355C8
:10066000B70099E33A85993C48C008C448C4B71715
:100670000240DC438D46AD83FD8B13D737008A07DC
:10068000F18BD98F13F6370113F7370063F4C600E7
:10069000138747FFB707002093874701BA978C233A
:1006A000313C08C819B45C43B777DC02938707C0B4
:1006B00061B799C5371702401C4F5D8D08CF828006
:1006C000B7170240984F1345F5FF798D88CF828088
:1006D0001A218D6793870704B6217D8F9E21D58FC0
:1006E000D621D58FF621D58F9625D58FB625D58FD6
:1006F000D625D58FF625D58FD98F1EA19E291EA967
:1007000082801E2189C593E707041EA18280C2074B
:10071000C18393F7F7FBC207C183C5BF4EA5828093
:100720000A256D8D3335A0008280EFF27F97162960
:10073000F577FD17F58FF621DA252111D58F1EA942
:100740005625FD779387379FF58FD6212A842EC0B3
:10075000D58F9625D58FB625D58F5EA55E29C20784
:10076000C18393F7F7CF5D8F5AA948006D35B7471E
:100770000140938707808245631FF404C2475A24CF
:10078000139517003E9542070E0541873E958C4113
:100790006355070486051D32930540062AC0393A81
:1007A000824793144500930540063E85353A5E2402
:1007B000C207C18763D507020E05930540061305DE
:1007C0002503EFF0BF8F1D89C98CC204C18006A428
:1007D00061016FF09F8DB2475DB78A056DBF12054D
:1007E0009305400613052503EFF05F8D3D89E9BFB2
:1007F00091C55E250967D98F5EA582805A25F97754
:10080000FD17F98FD5BF93F5F51F4EA182800A2100
:100810006D8D3335A0008280EFF29F88B7070020EE
:1008200003A50701B7157A0093850520EFF01F890E
:100830001375F50F2385A18093175500898F8A07BB
:100840003E950E052394A1806FF03F86EFF25F8501
:100850002A8411651111854513050502993D9307F9
:1008600000027C80371501408D473EC28A85E147F2
:10087000130505403EC4FD3922C637440140B70781
:1008800008006C00130504803ECA02C8231C010046
:10089000693D854513050480A13F71016FF0FF801C
:1008A000EFF21F807111AE840144635DC402B7474B
:1008B0000140138707803A859305000432C0813FC9
:1008C000B747014013870780024675D533878400F8
:1008D00083050700138507800504C205C1812537FC
:1008E0000246E1B7328511016FF02FFC411106C6B7
:1008F0002EC00DCD1841AA8705C358417D5511CB97
:100900008546631BD70098472300070023A20700F2
:100910000545B240410182809847824614A398471A
:10092000050798C7D8437D17D8C3DDB705468A8524
:10093000853FF9BF011122CC2EC206CE26CA2A84D9
:10094000814793050002634506029245BE95838563
:1009500005008DE563D8C70263D4E702198E13053D
:10096000000293F526002AC089C501E7930500031C
:100970002EC0858A814495EAB2840DA08507F1B71F
:100980001D8EF1BF0146E1BF824522853AC832C6BD
:100990003EC4A93FA24732464247FD14E34690FEBB
:1009A000B284635306008144058E63C7E702A687BD
:1009B00092463387974036978305070095EDB284BA
:1009C00063449004635306000146F2406244D244FB
:1009D0003305F600056182801D8FBA8793050003F9
:1009E000228532C83EC63AC41137B2472247424632
:1009F000FD17EDF7BA9465BF228532C63EC4FD35BA
:100A0000A247324685076DB78245228532C43EC271
:100A1000F13DFD142246924765B7397106DE22DCAE
:100A200026DA3EC232833A8689ED92469307000366
:100A300001476C08FC86FD3DF2506254D25421619E
:100A40008280AA843684AE8791CA294701446317FD
:100A5000E30063D50500B307B04005448646A3090B
:100A6000010213073103938666FC36C49A853E85DE
:100A700032CA3AC81AC63EC0EFF00FE7A546824711
:100A800032434247524663D4A600A2463695130528
:100A900005039306F7FFA30FA7FE9A853E8532CC88
:100AA0003ACA1AC83EC636C0EFF04FE1B2474243D9
:100AB0005247624663F9670401CC29CA9247898B81
:100AC000B1C79305D002268532C40D3522467D1666
:100AD0009247918B95C306479307100632C493053E
:100AE00000032685631EF7021135930580072685CE
:100AF000F53B22460904791616479246824526851B
:100B0000153D229515BFAA8702478DB782469307E8
:100B1000D0020144A38FF6FE9307E7FF3EC04DBF0E
:100B2000F13393058005E1B701458280014582805C
:100B3000130181FD22D026CE06D22AC4AE82328491
:100B400002C681448385020089EDA24781C78145A1
:100B50003E85693B925002542685F244130181027E
:100B60008280930750026388F500224516C88504E9
:100B7000B53BC24239A88387120013871200639CD9
:100B8000B7002245930550023AC88D334247850489
:100B9000BA82850245BFD5DB9306B0026389D704CC
:100BA00063C8F600930630026386D704814705A028
:100BB0009306D002638AD70093060003E398D7FE1A
:100BC00013872200894721A01387220085478306C7
:100BD00007001306B0026383C6046341D6021306FE
:100BE0003002638BC602BA820145A54681A01387F5
:100BF00022006DBF138722009147D1BF1306D00298
:100C00006389C60013060003E39FC6FC93E7270031
:100C100031A005078547C1BF93E747000507E1B746
:100C200013162500329506053A95850203860200C3
:100C3000130706FD9375F70FE3F4B6FE1307E00202
:100C40009946631EE60085028146A545038602009B
:100C5000130606FD1377F60F63F5E50236C6038724
:100C600002001306A006630DC70A6343E6021306DB
:100C7000C0046307C70A13068006630CC7088145D2
:100C80002DA813972600BA968606B29685027DBFD8
:100C9000130640076306C7081306A0076302C708C8
:100CA0001306C0068145631AC700038612008D45EE
:100CB0006314E600850291458502038602009303D2
:100CC00000061307100663C4C30013071004930340
:100CD000700663C4C30693035006635376189303E8
:100CE000700463C1C30493055004635BB616130715
:100CF0003004E310E6EA18409303440016CA230CBC
:100D0000E1001EC8A30C01000147BE862A862C08FC
:100D100049A8038612008145E311E6FA890271BFF2
:100D20008502B1BF93063006E307D6FC63CEC60644
:100D3000930680056303D602A9BD930630076304BA
:100D4000D60463CBC6029306F0066302D60E930662
:100D5000000793E74700E31ED6E29146639FD50A5A
:100D6000930384000C40504016CA3AC23EC01EC8CD
:100D7000AA870147C146B9A0930650076308D60663
:100D80009306800745BF1840B71600009303440040
:100D9000938546EC11C3BA85324716CA1EC8BE8673
:100DA0002A862245413E0DA091466394D5029303C5
:100DB00084000C40504016CA3AC23EC01EC8AA87E2
:100DC0000547A94622458D33C243AA941E84D242C8
:100DD000C9B3B2460C4016C836C23AC011042A87BD
:100DE0008546294622451539AA9461B39146639DEB
:100DF000D500930384000C40504016CA3AC23EC04E
:100E00001EC8AA87014775BFB2460C4016C836C235
:100E10003AC011042A878146E9B7B24616C80C4089
:100E2000414636C23AC011042A87814665BF9146C1
:100E3000639ED500930384000C40504016CA3AC20A
:100E40003EC01EC8AA870147A146ADBFB2460C40AE
:100E500016C836C23AC011042A878146214659B7BE
:100E60000C401306840040403AC22A87224532C80B
:100E70003EC02286B687A94616CA4D39AA94424476
:100E8000B9B71301C1FD2EC832CAAA8510080145A1
:100E900006C636CC3ACE3ED032C05939B2401301E4
:100EA0004102828053797374656D436C6B3A25649B
:100EB0000D0A00004368697049443A253038780DBE
:0C0EC0000A000000286E756C6C29000010
:100ECC0001020304050607080102030405060708CE
:100EDC00006CDC020204060804080C100810182030
:100EEC0010203040204060800102030405060708F2
:080EFC000102030405060708CA
:00000001FF
